:020000040800F2
:100000000050002035080008450600084B0600088F
:1000100051060008570600085D06000800000000B1
:10002000000000000000000000000000630600085F
:100030006F060008000000007B0600088706000825
:100040007D0800087D0800087D0800087D0800087C
:100050007D0800087D0800087D0800087D0800086C
:100060007D0800087D0800087D0800087D0800085C
:100070007D0800087D0800087D0800087D0800084C
:100080007D0800087D0800087D0800087D0800083C
:100090007D0800087D0800087D0800087D0800082C
:1000A0007D0800087D0800087D0800087D0800081C
:1000B0007D0800087D0800087D0800087D0800080C
:1000C0007D0800087D0800087D0800087D080008FC
:1000D0007D0800087D080008950600087D080008D6
:1000E0007D0800087D0800087D0800080000000069
:1000F0000000000000000000000000000000000000
:0C01000000000000000000005FF808F1A3
:10010C0010B5054C237833B9044B13B10448AFF345
:10011C0000800123237010BD680000200000000047
:10012C005443000808B5034B1BB103490348AFF314
:10013C00008008BD000000006C0000205443000843
:10014C0080B582B000AF78607B681A68094B1B6879
:10015C009A420AD10A2301220749064802F01AF9E9
:10016C0001220549034802F098F900BF0837BD4643
:10017C0080BD00BFFC0000204401002080B586B08B
:10018C0000AF00F077FB00F041F800F043F900F00D
:10019C008DF800F0C9F800F013F90122174918483E
:1001AC0002F07BF90023BB822D23FB82FB8ABB82EE
:1001BC0002F018FF03465A42C3F30B03C2F30B02BF
:1001CC0058BF5342FB82BA8AFB8A9A420CD0FA8AF5
:1001DC003B460C49184602F0F3FF03469AB23946E7
:1001EC000A23074802F0D6F84FF40051064801F0F4
:1001FC0035F94FF4FA7000F09FFBD7E7440100206B
:10020C00FC0000206C4300080010014080B594B045
:10021C0000AF07F1280328220021184603F033F819
:10022C0007F1140300221A605A609A60DA601A61AE
:10023C003B1D00221A605A609A60DA600223BB628E
:10024C000123BB631023FB6300237B6407F12803AA
:10025C00184601F01DF90346002B01D000F01AF9E5
:10026C000F237B610023BB610023FB6100233B62F6
:10027C0000237B6207F114030021184601F08AFB6E
:10028C000346002B01D000F005F902237B6000230C
:10029C00FB603B1D184601F00BFD0346002B01D003
:1002AC0000F0F8F800BF5037BD4680BD80B584B073
:1002BC0000AF3B1D00221A605A609A60184B194A15
:1002CC001A60174B00229A60154B00221A73144BBC
:1002DC0000221A75124B4FF46022DA61104B002287
:1002EC005A600F4B01221A610D4800F049FB03467E
:1002FC00002B01D000F0CEF800237B600123BB6003
:10030C000723FB603B1D1946054800F011FC034612
:10031C00002B01D000F0BEF800BF1037BD4680BDE9
:10032C00840000200024014080B586B000AF07F1A6
:10033C00080300221A605A609A60DA603B46002279
:10034C001A605A601D4B4FF080421A601B4B0722FB
:10035C005A601A4B00229A60184B40F2E732DA606E
:10036C00164B00221A61154B00229A61134801F0BA
:10037C0055FD0346002B01D000F08CF84FF4805350
:10038C00BB6007F1080319460C4801F096FD0346C3
:10039C00002B01D000F07EF800233B6000237B6033
:1003AC003B461946054801F047FF0346002B01D098
:1003BC0000F070F800BF1837BD4680BDB4000020B7
:1003CC0080B500AF114B124A1A60104B4FF4165205
:1003DC005A600E4B00229A600C4B0022DA600B4BD9
:1003EC0000221A61094B0C225A61084B00229A61B7
:1003FC00064B0022DA61054801F07CFF0346002B16
:10040C0001D000F047F800BF80BD00BFFC00002009
:10041C000044004080B586B000AF07F1080300220D
:10042C001A605A609A60DA60184B9B69174A43F05D
:10043C0010039361154B9B6903F010037B607B6881
:10044C00124B9B69114A43F0040393610F4B9B6958
:10045C0003F004033B603B6800224FF400510C484E
:10046C0000F0E4FF4FF40053BB600123FB6000235A
:10047C003B6102237B6107F108031946044800F035
:10048C0051FE00BF1837BD4680BD00BF00100240B2
:10049C000010014080B400AF72B600BFFEE7000050
:1004AC0080B483B000AF0E4B9B690D4A43F001033F
:1004BC0093610B4B9B6903F001037B607B68084BDA
:1004CC00DB69074A43F08053D361054BDB6903F0CA
:1004DC0080533B603B6800BF0C37BD4680BC704707
:1004EC000010024080B588B000AF786007F11003AF
:1004FC0000221A605A609A60DA607B681B68144AA2
:10050C00934221D1134B9B69124A43F400739361BC
:10051C00104B9B6903F40073FB60FB680D4B9B69EC
:10052C000C4A43F0040393610A4B9B6903F00403E8
:10053C00BB60BB6801233B6103237B6107F11003A4
:10054C001946054800F0EEFD00BF2037BD4680BDC2
:10055C0000240140001002400008014080B485B026
:10056C0000AF78607B681B68B3F1804F0BD1084BF0
:10057C00DB69074A43F00103D361054BDB6903F0E8
:10058C000103FB60FB6800BF1437BD4680BC70479D
:10059C000010024080B588B000AF786007F11003FE
:1005AC0000221A605A609A60DA607B681B681F4AE6
:1005BC00934237D11E4BDB691D4A43F40033D361A0
:1005CC001B4BDB6903F40033FB60FB68184B9B6926
:1005DC00174A43F004039361154B9B6903F0040322
:1005EC00BB60BB6804233B6102237B610323FB617B
:1005FC0007F1100319460F4800F094FD08233B61E6
:10060C0000237B610023BB6107F1100319460948E5
:10061C0000F088FD00220021262000F09AFC262004
:10062C0000F0B3FC00BF2037BD4680BD0044004045
:10063C00001002400008014080B400AFFEE780B417
:10064C0000AFFEE780B400AFFEE780B400AFFEE77A
:10065C0080B400AFFEE780B400AF00BFBD4680BCE5
:10066C00704780B400AF00BFBD4680BC704780B4FB
:10067C0000AF00BFBD4680BC704780B500AF00F036
:10068C003FF900BF80BD000080B500AF024801F00B
:10069C0029FF00BF80BD00BFFC00002080B400AF6C
:1006AC0001231846BD4680BC704780B582B000AFB0
:1006BC007860396002F036FE034616221A604FF05D
:1006CC00FF3318460837BD4680BD80B582B000AFF9
:1006DC0078604FF0FF317868FFF7E7FFFEE780B5F1
:1006EC0086B000AFF860B9607A6000237B610AE0E5
:1006FC00AFF300800146BB685A1CBA60CAB21A70CC
:10070C007B6901337B617A697B689A42F0DB7B6899
:10071C0018461837BD4680BD80B586B000AFF8606E
:10072C00B9607A6000237B6109E0BB685A1CBA602F
:10073C001B781846AFF300807B6901337B617A69C3
:10074C007B689A42F1DB7B6818461837BD4680BD42
:10075C0080B483B000AF78604FF0FF3318460C378D
:10076C00BD4680BC704780B483B000AF7860396000
:10077C003B684FF400525A60002318460C37BD46B4
:10078C0080BC704780B483B000AF786001231846FA
:10079C000C37BD4680BC704780B485B000AFF860A4
:1007AC00B9607A60002318461437BD4680BC704788
:1007BC0080B586B000AF7860144A154BD31A7B61B4
:1007CC007B693B61134B1B68002B02D1114B124A06
:1007DC001A60104B1A687B6813443A699A4207D224
:1007EC0002F0A0FD03460C221A604FF0FF3309E023
:1007FC00084B1B68FB60074B1A687B681344054A5F
:10080C001360FB6818461837BD4680BD00500020A9
:10081C000004000048010020A002002080B400AFBA
:10082C0000BFBD4680BC7047FFF7F8FF0B480C4972
:10083C000C4A002302E0D458C4500433C4188C4230
:10084C00F9D3094A094C002301E013600432A24297
:10085C00FBD302F06DFDFFF791FC70470000002008
:10086C006800002084440008680000209C020020DE
:10087C00FEE7000080B500AF084B1B68074A43F049
:10088C0010031360032000F059FB0F2000F008F850
:10089C00FFF706FE0023184680BD00BF0020024073
:1008AC0080B582B000AF7860124B1A68124B1B787F
:1008BC0019464FF47A73B3FBF1F3B2FBF3F318461A
:1008CC0000F071FB0346002B01D001230EE07B6886
:1008DC000F2B0AD8002279684FF0FF3000F039FB5B
:1008EC00064A7B681360002300E001231846083792
:1008FC00BD4680BD00000020080000200400002040
:10090C0080B400AF054B1B781A46054B1B6813448B
:10091C00034A136000BFBD4680BC7047080000202E
:10092C004C01002080B400AF024B1B681846BD463A
:10093C0080BC70474C01002080B584B000AF78605B
:10094C00FFF7F0FFB8607B68FB60FB68B3F1FF3F1B
:10095C0005D00A4B1B781A46FB681344FB6000BF9A
:10096C00FFF7E0FF0246BB68D31AFA689A42F7D841
:10097C0000BF00BF1037BD4680BD00BF080000207F
:10098C0080B586B000AF78600023FB7500233B6117
:10099C000023BB600023FB607B68002B01D101238B
:1009AC00BEE07B689B68002B7B689B6A002B09D19F
:1009BC007B680022DA627B68002283F82420786846
:1009CC00FFF790FD786800F0ABF90346FB757B6888
:1009DC009B6A03F01003002B40F09980FB7D002BE9
:1009EC0040F095807B689B6A23F4885323F00203C4
:1009FC0043F002027B689A627B685A687B68DB6909
:100A0C001A437B681B7B5B001343BA681343BB60C0
:100A1C007B689B68B3F5807F03D07B689B68012B58
:100A2C0002D14FF4807300E000233A6913433B6119
:100A3C007B681B7D012B19D17B681B7B002B09D19B
:100A4C007B689B69013B5A033B69134343F4006386
:100A5C003B610BE07B689B6A43F020027B689A62E7
:100A6C007B68DB6A43F001027B68DA627B681B6897
:100A7C005B6823F469417B681B683A690A435A60D6
:100A8C007B681B689A68284B13407A681268B968AF
:100A9C000B4393607B689B68B3F5807F03D07B68C6
:100AAC009B68012B04D17B681B69013B1B05FB6018
:100ABC007B681B68DB6A23F470017B681B68FA682F
:100ACC000A43DA627B681B689A68184B1340BA6851
:100ADC009A420BD17B680022DA627B689B6A23F016
:100AEC00030343F001027B689A6218E07B689B6AFF
:100AFC0023F0120343F010027B689A627B68DB6A76
:100B0C0043F001027B68DA620123FB7507E07B6826
:100B1C009B6A43F010027B689A620123FB75FB7D94
:100B2C0018461837BD4680BDFDF7E1FFFE0E1FFFCE
:100B3C0080B485B000AF786039600023FB7300236C
:100B4C00BB607B6893F82430012B01D10223DCE0DD
:100B5C007B68012283F824203B685B68062B1CD839
:100B6C007B681B68596B3B685A6813469B0013449F
:100B7C00053B1F2202FA03F3DB4319403B6818685C
:100B8C003B685A6813469B001344053B00FA03F27A
:100B9C007B681B680A435A633CE03B685B680C2B20
:100BAC001CD87B681B68196B3B685A6813469B0002
:100BBC001344233B1F2202FA03F3DB4319403B6827
:100BCC0018683B685A6813469B001344233B00FA91
:100BDC0003F27B681B680A431A631BE07B681B6883
:100BEC00D96A3B685A6813469B001344413B1F2249
:100BFC0002FA03F3DB4319403B6818683B685A68F8
:100C0C0013469B001344413B00FA03F27B681B68BC
:100C1C000A43DA623B681B68092B1CD97B681B688A
:100C2C00D9683B681A6813465B0013441E3B0722C5
:100C3C0002FA03F3DB4319403B6898683B681A6877
:100C4C0013465B0013441E3B00FA03F27B681B68DF
:100C5C000A43DA6019E07B681B6819693B681A68FB
:100C6C0013465B001344072202FA03F3DB431940DB
:100C7C003B6898683B681A6813465B00134400FA9B
:100C8C0003F27B681B680A431A613B681B68102BD4
:100C9C0003D03B681B68112B32D17B681B681D4A43
:100CAC00934225D17B681B689B6803F40003002BDF
:100CBC0026D17B681B689A687B681B6842F400022B
:100CCC009A603B681B68102B1AD1134B1B68134A94
:100CDC00A2FB03239A0C13469B0013445B00BB60DE
:100CEC0002E0BB68013BBB60BB68002BF9D107E09D
:100CFC007B689B6A43F020027B689A620123FB733A
:100D0C007B68002283F82420FB7B18461437BD46F1
:100D1C0080BC7047002401400000002083DE1B4390
:100D2C0080B584B000AF78600023FB607B681B68E3
:100D3C009B6803F00103012B2ED17B681B689A681A
:100D4C007B681B6822F001029A60FFF7EBFDF860EC
:100D5C001BE0FFF7E7FD0246FB68D31A022B14D900
:100D6C007B681B689B6803F00103012B0DD17B682A
:100D7C009B6A43F010027B689A627B68DB6A43F0E3
:100D8C0001027B68DA62012307E07B681B689B68C1
:100D9C0003F00103012BDCD0002318461037BD46AD
:100DAC0080BD000080B485B000AF78607B6803F034
:100DBC000703FB600C4BDB68BB60BA684FF6FF03A4
:100DCC001340BB60FB681A02BB68134343F0BF635C
:100DDC0043F40033BB60044ABB68D36000BF1437D4
:100DEC00BD4680BC704700BF00ED00E080B400AF92
:100DFC00044BDB681B0A03F007031846BD4680BC96
:100E0C00704700BF00ED00E080B483B000AF034634
:100E1C00FB7197F90730002B0BDBFB7903F01F02FA
:100E2C00064997F907305B09012000FA02F241F8F4
:100E3C00232000BF0C37BD4680BC704700E100E0AA
:100E4C0080B483B000AF03463960FB7197F907306B
:100E5C00002B0ADB3B68DAB20C4997F90730120118
:100E6C00D2B20B4483F800230AE03B68DAB208499B
:100E7C00FB7903F00F03043B1201D2B20B441A7638
:100E8C0000BF0C37BD4680BC704700BF00E100E0DE
:100E9C0000ED00E080B489B000AFF860B9607A6012
:100EAC00FB6803F00703FB61FB69C3F10703042B29
:100EBC0028BF0423BB61FB690433062B02D9FB69F1
:100ECC00033B00E000237B614FF0FF32BB6902FA69
:100EDC0003F3DA43BB681A407B699A404FF0FF3149
:100EEC007B6901FA03F3D9437B680B401343184623
:100EFC002437BD4680BC704780B582B000AF7860A7
:100F0C007B68013BB3F1807F01D301230FE00A4AD8
:100F1C007B68013B53600F214FF0FF30FFF790FFD0
:100F2C00054B00229A60044B07221A6000231846D6
:100F3C000837BD4680BD00BF10E000E080B582B030
:100F4C0000AF78607868FFF72DFF00BF0837BD460B
:100F5C0080BD80B586B000AF0346B9607A60FB7384
:100F6C0000237B61FFF742FF78617A68B968786982
:100F7C00FFF790FF024697F90F3011461846FFF71E
:100F8C005FFF00BF1837BD4680BD80B582B000AF93
:100F9C000346FB7197F907301846FFF735FF00BF82
:100FAC000837BD4680BD80B582B000AF78607868E8
:100FBC00FFF7A2FF034618460837BD4680BD80B434
:100FCC0085B000AF78600023FB737B6893F8213009
:100FDC00DBB2022B08D07B6804229A637B68002268
:100FEC0083F82020012320E07B681B681A687B684B
:100FFC001B6822F00E021A607B681B681A687B68FB
:10100C001B6822F001021A607B681A6C7B68DB6B30
:10101C00012101FA02F25A607B68012283F8212037
:10102C007B68002283F82020FB7B18461437BD46D2
:10103C0080BC704780B584B000AF78600023FB7330
:10104C007B6893F82130DBB2022B05D07B6804223D
:10105C009A630123FB7351E07B681B681A687B68F9
:10106C001B6822F00E021A607B681B681A687B688A
:10107C001B6822F001021A607B681B68224A9342AB
:10108C0029D07B681B68214A934222D07B681B685D
:10109C001F4A93421AD07B681B681E4A934212D097
:1010AC007B681B681C4A93420AD07B681B681B4AEE
:1010BC00934202D14FF480130EE04FF080730BE09B
:1010CC004FF4803308E04FF4805305E04FF4807305
:1010DC0002E0102300E00123114A53607B680122D7
:1010EC0083F821207B68002283F820207B685B6BCF
:1010FC00002B03D07B685B6B78689847FB7B1846AA
:10110C001037BD4680BD00BF080002401C000240E5
:10111C003000024044000240580002406C00024083
:10112C000000024080B48BB000AF786039600023BF
:10113C007B6200233B6269E101227B6A02FA03F3C2
:10114C00FB613B681B68FA691340BB61BA69FB69B8
:10115C009A4240F058813B685B689A4A93425ED051
:10116C00984A934275D8984A934258D0964A9342DB
:10117C006FD8964A934252D0944A934269D8944A73
:10118C0093424CD0924A934263D8924A934246D0AF
:10119C00904A93425DD8122B2AD8122B59D801A20F
:1011AC0052F823F02B120008051200081712000841
:1011BC00591200085F1200085F1200085F12000845
:1011CC005F1200085F1200085F1200085F1200082F
:1011DC005F1200085F1200085F1200085F1200081F
:1011EC005F1200085F1200080D120008211200089F
:1011FC00794A934213D02CE03B68DB683B6229E0D0
:10120C003B68DB6804333B6224E03B68DB680833F3
:10121C003B621FE03B68DB680C333B621AE03B68C7
:10122C009B68002B02D104233B6213E03B689B6854
:10123C00012B05D108233B627B68FA691A6109E02E
:10124C0008233B627B68FA695A6103E000233B6226
:10125C0000E000BFBB69FF2B01D87B6801E07B6815
:10126C0004337B61BB69FF2B02D87B6A9B0002E0D5
:10127C007B6A083B9B003B617B691A680F213B69C9
:10128C0001FA03F3DB431A40396A3B6901FA03F3B1
:10129C001A437B691A603B685B6803F08053002B30
:1012AC0000F0B1804D4B9B694C4A43F001039361B4
:1012BC004A4B9B6903F00103BB60BB68484A7B6ADD
:1012CC009B08023352F82330FB607B6A03F0030364
:1012DC009B000F2202FA03F3DB43FA681340FB6016
:1012EC007B68404A934213D07B683F4A93420DD0AF
:1012FC007B683E4A934207D07B683D4A934201D1BA
:10130C00032306E0042304E0022302E0012300E0AF
:10131C0000237A6A02F0030292009340FA681343A6
:10132C00FB602F497B6A9B080233FA6841F8232043
:10133C003B685B6803F48013002B06D02D4B9A6836
:10134C002C49BB6913438B6006E02A4B9A68BB6936
:10135C00DB43284913408B603B685B6803F4001344
:10136C00002B06D0234BDA682249BB691343CB60B0
:10137C0006E0204BDA68BB69DB431E491340CB60A7
:10138C003B685B6803F40033002B06D0194B5A689A
:10139C001849BB6913434B6006E0164B5A68BB698E
:1013AC00DB43144913404B603B685B6803F48033A8
:1013BC00002B21D00F4B1A680E49BB6913430B60ED
:1013CC0021E000BF0000321000003110000022109C
:1013DC00000021100000121000001110001002403B
:1013EC000000014000080140000C014000100140C9
:1013FC0000140140000401400B4B1A68BB69DB432D
:10140C00094913400B607B6A01337B623B681A68A5
:10141C007B6A22FA03F3002B7FF48EAE00BF00BF71
:10142C002C37BD4680BC70470004014080B483B0AB
:10143C0000AF78600B467B8013467B707B78002B6B
:10144C0003D07A887B681A6103E07B881A047B6876
:10145C001A6100BF0C37BD4680BC704780B485B0A4
:10146C0000AF78600B467B807B68DB68FB607A881A
:10147C00FB6813401A04FB68D9437B880B401A4362
:10148C007B681A6100BF1437BD4680BC70470000F2
:10149C0080B586B000AF78607B68002B01D101234A
:1014AC0072E27B681B6803F00103002B00F087805D
:1014BC00924B5B6803F00C03042B0CD08F4B5B68D6
:1014CC0003F00C03082B12D18C4B5B6803F48033B4
:1014DC00B3F5803F0BD1894B1B6803F40033002B11
:1014EC006CD07B685B68002B68D101234CE27B6875
:1014FC005B68B3F5803F06D1804B1B687F4A43F491
:10150C00803313602EE07B685B68002B0CD17B4B27
:10151C001B687A4A23F480331360784B1B68774A34
:10152C0023F4802313601DE07B685B68B3F5A02F68
:10153C000CD1724B1B68714A43F4802313606F4BC0
:10154C001B686E4A43F4803313600BE06B4B1B68D3
:10155C006A4A23F480331360684B1B68674A23F490
:10156C00802313607B685B68002B13D0FFF7DAF9DC
:10157C00386108E0FFF7D6F902463B69D31A642BB1
:10158C0001D9032300E25D4B1B6803F40033002BED
:10159C00F0D014E0FFF7C6F9386108E0FFF7C2F9A4
:1015AC0002463B69D31A642B01D90323ECE1534B5C
:1015BC001B6803F40033002BF0D100E000BF7B6804
:1015CC001B6803F00203002B63D04C4B5B6803F0E9
:1015DC000C03002B0BD0494B5B6803F00C03082B5E
:1015EC001CD1464B5B6803F48033002B16D1434B64
:1015FC001B6803F00203002B05D07B681B69012BD1
:10160C0001D00123C0E13D4B1B6823F0F8027B683D
:10161C005B69DB00394913430B603AE07B681B695B
:10162C00002B20D0364B01221A60FFF77BF9386172
:10163C0008E0FFF777F902463B69D31A022B01D970
:10164C000323A1E12D4B1B6803F00203002BF0D008
:10165C002A4B1B6823F0F8027B685B69DB00274987
:10166C0013430B6015E0264B00221A60FFF75AF962
:10167C00386108E0FFF756F902463B69D31A022B92
:10168C0001D9032380E11D4B1B6803F00203002BDF
:10169C00F0D17B681B6803F00803002B3AD07B6801
:1016AC009B69002B19D0174B01221A60FFF73AF9EE
:1016BC00386108E0FFF736F902463B69D31A022B72
:1016CC0001D9032360E10D4B5B6A03F00203002B8D
:1016DC00F0D0012000F0CEFA1CE00A4B00221A6078
:1016EC00FFF720F938610FE0FFF71CF902463B6960
:1016FC00D31A022B08D9032346E100BF0010024085
:10170C000000424280044242924B5B6A03F00203A7
:10171C00002BE9D17B681B6803F00403002B00F05D
:10172C00A6800023FB758B4BDB6903F08053002BE9
:10173C000DD1884BDB69874A43F08053D361854BCD
:10174C00DB6903F08053BB60BB680123FB75824BE4
:10175C001B6803F48073002B18D17F4B1B687E4AE7
:10176C0043F480731360FFF7DDF8386108E0FFF78E
:10177C00D9F802463B69D31A642B01D9032303E140
:10178C00754B1B6803F48073002BF0D07B68DB680F
:10179C00012B06D16F4B1B6A6E4A43F00103136297
:1017AC002DE07B68DB68002B0CD16A4B1B6A694A05
:1017BC0023F001031362674B1B6A664A23F0040390
:1017CC0013621CE07B68DB68052B0CD1614B1B6A38
:1017DC00604A43F0040313625E4B1B6A5D4A43F09C
:1017EC00010313620BE05B4B1B6A5A4A23F00103A3
:1017FC001362584B1B6A574A23F0040313627B682D
:10180C00DB68002B15D0FFF78DF838610AE0FFF785
:10181C0089F802463B69D31A41F28832934201D9C6
:10182C000323B1E04B4B1B6A03F00203002BEED0F9
:10183C0014E0FFF777F838610AE0FFF773F8024617
:10184C003B69D31A41F28832934201D903239BE0BE
:10185C00404B1B6A03F00203002BEED1FB7D012BE6
:10186C0005D13C4BDB693B4A23F08053D3617B6849
:10187C00DB69002B00F08780364B5B6803F00C03B0
:10188C00082B61D07B68DB69022B46D1334B0022DD
:10189C001A60FFF747F8386108E0FFF743F8024693
:1018AC003B69D31A022B01D903236DE0294B1B682A
:1018BC0003F00073002BF0D17B681B6AB3F5803FFB
:1018CC0008D1244B5B6823F400327B689B68214968
:1018DC0013434B601F4B5B6823F474127B68196ACB
:1018EC007B685B6A0B431B4913434B601B4B012208
:1018FC001A60FFF717F8386108E0FFF713F8024693
:10190C003B69D31A022B01D903233DE0114B1B6811
:10191C0003F00073002BF0D035E0104B00221A605E
:10192C00FFF700F8386108E0FEF7FCFF02463B6960
:10193C00D31A022B01D9032326E0064B1B6803F0B4
:10194C000073002BF0D11EE07B68DB69012B07D103
:10195C00012319E000100240007000406000424278
:10196C000B4B5B68FB60FB6803F480327B681B6A83
:10197C009A4206D1FB6803F470127B685B6A9A4248
:10198C0001D0012300E0002318461837BD4680BD66
:10199C000010024080B584B000AF786039607B687D
:1019AC00002B01D10123D0E06A4B1B6803F0070325
:1019BC003A689A4210D9674B1B6823F007026549B5
:1019CC003B6813430B60634B1B6803F007033A68D7
:1019DC009A4201D00123B8E07B681B6803F0020334
:1019EC00002B20D07B681B6803F00403002B05D070
:1019FC00594B5B68584A43F4E06353607B681B683F
:101A0C0003F00803002B05D0534B5B68524A43F498
:101A1C0060535360504B5B6823F0F0027B689B680B
:101A2C004D4913434B607B681B6803F00103002B8B
:101A3C0040D07B685B68012B07D1474B1B6803F4D4
:101A4C000033002B15D101237FE07B685B68022BF0
:101A5C0007D1414B1B6803F00073002B09D1012304
:101A6C0073E03D4B1B6803F00203002B01D10123F3
:101A7C006BE0394B5B6823F003027B685B6836498B
:101A8C0013434B60FEF74EFFF8600AE0FEF74AFF87
:101A9C000246FB68D31A41F28832934201D90323E0
:101AAC0053E02D4B5B6803F00C027B685B689B007A
:101ABC009A42EBD1274B1B6803F007033A689A4212
:101ACC0010D2244B1B6823F0070222493B681343B6
:101ADC000B60204B1B6803F007033A689A4201D055
:101AEC00012332E07B681B6803F00403002B08D051
:101AFC00194B5B6823F4E0627B68DB68164913437F
:101B0C004B607B681B6803F00803002B09D0124B59
:101B1C005B6823F460527B681B69DB000E4913433E
:101B2C004B6000F021F802460B4B5B681B0903F07D
:101B3C000F030A49CB5C22FA03F3094A1360094BE1
:101B4C001B681846FEF7ACFE002318461037BD463E
:101B5C0080BD00BF0020024000100240744300080A
:101B6C00000000200400002080B487B000AF0023E8
:101B7C00FB600023BB6000237B6100237B600023A0
:101B8C003B611E4B5B68FB60FB6803F00C03042B92
:101B9C0002D0082B03D027E0194B3B6127E0FB68F0
:101BAC009B0C03F00F03174AD35C7B60FB6803F4B8
:101BBC008033002B10D0114B5B685B0C03F00103DE
:101BCC00114AD35CBB607B680D4A03FB02F2BB6815
:101BDC00B2FBF3F37B6104E07B680C4A02FB03F37A
:101BEC007B617B693B6102E0054B3B6100BF3B695C
:101BFC0018461C37BD4680BC704700BF0010024021
:101C0C0000127A008C4300089C43000800093D0038
:101C1C0080B400AF024B1B681846BD4680BC7047B1
:101C2C000000002080B500AFFFF7F2FF0246054B25
:101C3C005B681B0A03F007030349CB5C22FA03F32E
:101C4C00184680BD001002408443000880B500AFE8
:101C5C00FFF7DEFF0246054B5B68DB0A03F0070368
:101C6C000349CB5C22FA03F3184680BD00100240F6
:101C7C008443000880B485B000AF78600A4B1B68C1
:101C8C000A4AA2FB03235B0A7A6802FB03F3FB609C
:101C9C0000BFFB685A1EFA60002BF9D100BF00BFD1
:101CAC001437BD4680BC704700000020D34D621035
:101CBC0080B586B000AF786000233B610023FB60E9
:101CCC007B681B6803F00103002B7DD00023FB75A0
:101CDC004F4BDB6903F08053002B0DD14C4BDB6970
:101CEC004B4A43F08053D361494BDB6903F080537B
:101CFC00BB60BB680123FB75464B1B6803F4807308
:101D0C00002B18D1434B1B68424A43F48073136079
:101D1C00FEF708FE386108E0FEF704FE02463B6958
:101D2C00D31A642B01D903236DE03A4B1B6803F4DF
:101D3C008073002BF0D0364B1B6A03F44073FB60AE
:101D4C00FB68002B2ED07B685B6803F44073FA6849
:101D5C009A4227D02E4B1B6A23F44073FB602E4B08
:101D6C0001221A602C4B00221A60294AFB6813626C
:101D7C00FB6803F00103002B14D0FEF7D3FD386190
:101D8C000AE0FEF7CFFD02463B69D31A41F28832D6
:101D9C00934201D9032336E01D4B1B6A03F0020367
:101DAC00002BEED01A4B1B6A23F440727B685B68E5
:101DBC00174913430B62FB7D012B05D1144BDB69D7
:101DCC00134A23F08053D3617B681B6803F0020332
:101DDC00002B08D00E4B5B6823F440427B689B6859
:101DEC000B4913434B607B681B6803F01003002BFB
:101DFC0008D0074B5B6823F480027B68DB680449DE
:101E0C0013434B60002318461837BD4680BD00BFF6
:101E1C0000100240007000404004424280B582B085
:101E2C0000AF78607B68002B01D1012341E07B6817
:101E3C0093F83D30DBB2002B06D17B68002283F88F
:101E4C003C207868FEF78AFB7B68022283F83D20F1
:101E5C007B681A687B6804331946104600F0F4F866
:101E6C007B68012283F846207B68012283F83E20A0
:101E7C007B68012283F83F207B68012283F8402095
:101E8C007B68012283F841207B68012283F8422081
:101E9C007B68012283F843207B68012283F844206D
:101EAC007B68012283F845207B68012283F83D2062
:101EBC00002318460837BD4680BD80B584B000AFFE
:101ECC00786039600023FB737B6893F83C30012BFE
:101EDC0001D10223B4E07B68012283F83C207B68AB
:101EEC00022283F83D207B681B689B68BB60BB6843
:101EFC0023F07703BB60BB6823F47F43BB607B6834
:101F0C001B68BA689A603B681B68B3F5005F3ED0EB
:101F1C00B3F5005F00F28780B3F5805F00F0868038
:101F2C00B3F5805F7FD8702B1AD0702B7BD8602BC9
:101F3C0050D0602B77D8502B3CD0502B73D8402BE3
:101F4C0058D0402B6FD8302B64D0302B6BD8202B33
:101F5C0060D0202B67D8002B5CD0102B5AD062E0BD
:101F6C007B6818683B6899683B685A683B68DB6813
:101F7C0000F043F97B681B689B68BB60BB6843F04F
:101F8C007703BB607B681B68BA689A604FE07B681C
:101F9C0018683B6899683B685A683B68DB6800F0D6
:101FAC002CF97B681B689A687B681B6842F480423A
:101FBC009A603CE07B6818683B6859683B68DB6852
:101FCC001A4600F0A3F87B681B685021184600F0F5
:101FDC00FAF82CE07B6818683B6859683B68DB684A
:101FEC001A4600F0C1F87B681B686021184600F0A7
:101FFC00EAF81CE07B6818683B6859683B68DB684A
:10200C001A4600F083F87B681B684021184600F0E4
:10201C00DAF80CE07B681A683B681B6819461046B6
:10202C0000F0D1F803E00123FB7300E000BF7B68F4
:10203C00012283F83D207B68002283F83C20FB7B47
:10204C0018461037BD4680BD80B485B000AF7860AF
:10205C0039607B681B68FB607B68294A93420BD014
:10206C007B68B3F1804F07D07B68264A934203D03C
:10207C007B68254A934208D1FB6823F07003FB6010
:10208C003B685B68FA681343FB607B681C4A9342AD
:10209C000BD07B68B3F1804F07D07B68194A934211
:1020AC0003D07B68184A934208D1FB6823F4407331
:1020BC00FB603B68DB68FA681343FB60FB6823F04A
:1020CC0080023B685B691343FB607B68FA681A60AB
:1020DC003B689A687B68DA623B681A687B689A622C
:1020EC007B68074A934203D13B681A697B681A6381
:1020FC007B6801225A6100BF1437BD4680BC704713
:10210C00002C0140000400400008004080B487B05F
:10211C0000AFF860B9607A60FB681B6A7B61FB6892
:10212C001B6A23F00102FB681A62FB689B693B6126
:10213C003B6923F0F0033B617B681B013A69134355
:10214C003B617B6923F00A037B617A69BB681343AB
:10215C007B61FB683A699A61FB687A691A6200BF15
:10216C001C37BD4680BC704780B487B000AFF860A8
:10217C00B9607A60FB681B6A7B61FB681B6A23F0A1
:10218C001002FB681A62FB689B693B613B6923F494
:10219C0070433B617B681B033A6913433B617B696A
:1021AC0023F0A0037B61BB681B017A6913437B613D
:1021BC00FB683A699A61FB687A691A6200BF1C373E
:1021CC00BD4680BC704780B485B000AF7860396084
:1021DC007B689B68FB60FB6823F07003FB603A68CC
:1021EC00FB68134343F00703FB607B68FA689A6053
:1021FC0000BF1437BD4680BC704780B487B000AFB9
:10220C00F860B9607A603B60FB689B687B617B69B6
:10221C0023F47F437B613B681A027B681A43BB68DB
:10222C0013437A6913437B61FB687A699A6000BF38
:10223C001C37BD4680BC704780B485B000AF786059
:10224C0039607B6893F83C30012B01D1022346E0C6
:10225C007B68012283F83C207B68022283F83D20B6
:10226C007B681B685B68FB607B681B689B68BB605A
:10227C00FB6823F07003FB603B681B68FA68134330
:10228C00FB607B681B68FA685A607B681B68164A9F
:10229C0093420ED07B681B68B3F1804F09D07B68EA
:1022AC001B68124A934204D07B681B68104A934205
:1022BC000CD1BB6823F08003BB603B685B68BA68D9
:1022CC001343BB607B681B68BA689A607B68012209
:1022DC0083F83D207B68002283F83C2000231846BD
:1022EC001437BD4680BC7047002C014000040040F0
:1022FC000008004080B582B000AF78607B68002B8E
:10230C0001D1012342E07B6893F84130DBB2002B12
:10231C0006D17B68002283F840207868FEF73AF9F2
:10232C007B68242283F841207B681B68DA687B6811
:10233C001B6822F40052DA60786800F0C5FD7B68F7
:10234C001B681A697B681B6822F490421A617B68CF
:10235C001B685A697B681B6822F02A025A617B68E9
:10236C001B68DA687B681B6842F40052DA607B6891
:10237C0000225A647B68202283F841207B6820224B
:10238C0083F842207B6800225A63002318460837E2
:10239C00BD4680BD80B58AB002AFF860B9603B60C5
:1023AC001346FB8000237B61FB6893F84130DBB262
:1023BC00202B6DD1BB68002B02D0FB88002B01D1E8
:1023CC00012366E0FB6800225A64FB68212283F833
:1023DC004120FEF7A7FA7861FB68FA889A84FB68BB
:1023EC00FA88DA84FB689B68B3F5805F08D1FB68D8
:1023FC001B69002B04D10023FB61BB68BB6103E0AC
:10240C00BB68FB610023BB612AE03B6800937B69DE
:10241C0000228021F86800F014FB0346002B01D049
:10242C00032336E0FB69002B0BD1BB691B881A46D2
:10243C00FB681B68C2F308025A60BB690233BB61BC
:10244C0007E0FB691A78FB681B685A60FB6901336B
:10245C00FB61FB68DB8C9BB2013B9AB2FB68DA84B4
:10246C00FB68DB8C9BB2002BCFD13B6800937B6964
:10247C0000224021F86800F0E4FA0346002B01D05A
:10248C00032306E0FB68202283F84120002300E0B0
:10249C00022318462037BD4680BD80B584B000AFFE
:1024AC00F860B9601346FB80FB6893F84230DBB2EE
:1024BC00202B12D1BB68002B02D0FB88002B01D142
:1024CC0001230BE0FB6800221A63FB881A46B968EB
:1024DC00F86800F024FB034600E00223184610378E
:1024EC00BD4680BD80B5BAB000AF78607B681B6814
:1024FC001B68C7F8E4307B681B68DB68C7F8E03002
:10250C007B681B685B69C7F8DC300023C7F8D830E0
:10251C000023C7F8D430D7F8E43003F00F03C7F822
:10252C00D830D7F8D830002B0FD1D7F8E43003F0DF
:10253C002003002B09D0D7F8E03003F02003002B48
:10254C0003D0786800F001FC5BE2D7F8D830002BA0
:10255C0000F0DE80D7F8DC3003F00103002B06D14D
:10256C00D7F8E03003F49073002B00F0D180D7F84B
:10257C00E43003F00103002B0BD0D7F8E03003F468
:10258C008073002B05D07B685B6C43F001027B6889
:10259C005A64D7F8E43003F00403002B0BD0D7F8BF
:1025AC00DC3003F00103002B05D07B685B6C43F03F
:1025BC0002027B685A64D7F8E43003F00203002B64
:1025CC000BD0D7F8DC3003F00103002B05D07B686F
:1025DC005B6C43F004027B685A64D7F8E43003F078
:1025EC000803002B11D0D7F8E03003F02003002BA8
:1025FC0005D1D7F8DC3003F00103002B05D07B6844
:10260C005B6C43F008027B685A647B685B6C002B44
:10261C0000F0F281D7F8E43003F02003002B08D04F
:10262C00D7F8E03003F02003002B02D0786800F0DC
:10263C008CFB7B681B685B6903F04003002B14BFA9
:10264C0001230023DBB2C7F8D4307B685B6C03F04A
:10265C000803002B03D1D7F8D430002B4FD0786867
:10266C0000F096FA7B681B685B6903F04003002B53
:10267C0041D07B681B681433C7F89C30D7F89C306A
:10268C0053E8003FC7F89830D7F8983023F0400350
:10269C00C7F8D0307B681B681433D7F8D020C7F844
:1026AC00A820C7F8A430D7F8A410D7F8A82041E880
:1026BC000023C7F8A030D7F8A030002BD9D17B6805
:1026CC00DB6B002B13D07B68DB6B7E4A5A637B6819
:1026DC00DB6B1846FEF7AEFC0346002B16D07B686E
:1026EC00DB6B5B6B7A68D26B104698470EE07868B0
:1026FC0000F093F90AE0786800F08FF906E078684A
:10270C0000F08BF97B6800225A6475E100BF73E11D
:10271C007B681B6B012B40F04F81D7F8E43003F042
:10272C001003002B00F04881D7F8E03003F01003C1
:10273C00002B00F041810023BB607B681B681B6889
:10274C00BB607B681B685B68BB60BB687B681B6895
:10275C005B6903F04003002B00F0B6807B68DB6BF9
:10276C001B685B68A7F8BE30B7F8BE30002B00F0D2
:10277C0045817B689B8DB7F8BE209A4280F03E81E4
:10278C007B68B7F8BE20DA857B68DB6B9B69202BF6
:10279C0000F088807B681B680C33C7F88830D7F84A
:1027AC00883053E8003FC7F88430D7F8843023F4DE
:1027BC008073C7F8B8307B681B680C33D7F8B82027
:1027CC00C7F89420C7F89030D7F89010D7F8942019
:1027DC0041E80023C7F88C30D7F88C30002BD9D1C6
:1027EC007B681B6814337B677B6F53E8003F3B6748
:1027FC003B6F23F00103C7F8B4307B681B681433BC
:10280C00D7F8B420C7F88020FB67F96FD7F8802081
:10281C0041E80023BB67BB6F002BE1D17B681B68D1
:10282C0014333B663B6E53E8003FFB65FB6D23F0B6
:10283C004003C7F8B0307B681B681433D7F8B0205E
:10284C00FA66BB66B96EFA6E41E800237B667B6E56
:10285C00002BE3D17B68202283F842207B68002286
:10286C001A637B681B680C33FB64FB6C53E8003FFA
:10287C00BB64BB6C23F01003C7F8AC307B681B68DF
:10288C000C33D7F8AC20BA657B65796DBA6D41E82D
:10289C0000233B653B6D002BE3D17B68DB6B18465B
:1028AC00FEF78DFB7B6802225A637B689A8D7B68EE
:1028BC00DB8D9BB2D31A9BB21946786800F0B6F840
:1028CC009CE000BF612C00087B689A8D7B68DB8DD7
:1028DC009BB2D31AA7F8CE307B68DB8D9BB2002B52
:1028EC0000F08E80B7F8CE30002B00F089807B682A
:1028FC001B680C33BB63BB6B53E8003F7B637B6B88
:10290C0023F49073C7F8C8307B681B680C33D7F876
:10291C00C8207A643B64396C7A6C41E80023FB6311
:10292C00FB6B002BE3D17B681B6814337B627B6AE7
:10293C0053E8003F3B623B6A23F00103C7F8C43005
:10294C007B681B681433D7F8C4203A63FB62F96ABE
:10295C003A6B41E80023BB62BB6A002BE3D17B6876
:10296C00202283F842207B6800221A637B681B6854
:10297C000C333B613B6953E8003FFB60FB6823F081
:10298C001003C7F8C0307B681B680C33D7F8C02025
:10299C00FA61BB61B969FA6941E800237B617B6923
:1029AC00002BE3D17B6802225A63B7F8CE3019466C
:1029BC00786800F03BF823E0D7F8E43003F08003AC
:1029CC00002B09D0D7F8E03003F08003002B03D0A4
:1029DC00786800F053F914E0D7F8E43003F04003C2
:1029EC00002B0ED0D7F8E03003F04003002B08D0BA
:1029FC00786800F092F904E000BF02E000BF00E04C
:102A0C0000BFE837BD4680BD80B483B000AF7860AE
:102A1C0000BF0C37BD4680BC704780B483B000AF9C
:102A2C00786000BF0C37BD4680BC704780B483B063
:102A3C0000AF78600B467B8000BF0C37BD4680BC76
:102A4C00704780B590B000AFF860B9603B6013463A
:102A5C00FB7150E0BB6CB3F1FF3F4CD0BB6C002B57
:102A6C0007D0FDF75FFF02463B68D31ABA6C9A4257
:102A7C0041D2FB681B680C33BB62BB6A53E8003F56
:102A8C007B627B6A23F4D073FB63FB681B680C339B
:102A9C00FA6B7A633B63396B7A6B41E80023FB6218
:102AAC00FB6A002BE5D1FB681B6814337B617B69E7
:102ABC0053E8003F3B613B6923F00103BB63FB68B8
:102ACC001B681433BA6B3A62FB61F9693A6A41E8E4
:102ADC000023BB61BB69002BE5D1FB68202283F886
:102AEC004120FB68202283F84220FB68002283F8F7
:102AFC00402003230FE0FB681B681A68BB68134077
:102B0C00BA689A420CBF01230023DBB21A46FB7948
:102B1C009A429FD0002318464037BD4680BD80B4F2
:102B2C0085B000AFF860B9601346FB80FB68BA68EB
:102B3C009A62FB68FA889A85FB68FA88DA85FB68E2
:102B4C0000225A64FB68222283F84220FB681B692E
:102B5C00002B07D0FB681B68DA68FB681B6842F423
:102B6C008072DA60FB681B685A69FB681B6842F06C
:102B7C0001025A61FB681B68DA68FB681B6842F04B
:102B8C002002DA60002318461437BD4680BC70471B
:102B9C0080B495B000AF78607B681B680C337B63A6
:102BAC007B6B53E8003F3B633B6B23F49073FB64FC
:102BBC007B681B680C33FA6C3A64FB63F96B3A6CF8
:102BCC0041E80023BB63BB6B002BE5D17B681B6822
:102BDC0014333B623B6A53E8003FFB61FB6923F013
:102BEC000103BB647B681B681433BA6CFA62BB626A
:102BFC00B96AFA6A41E800237B627B6A002BE5D153
:102C0C007B681B6B012B19D17B681B680C33FB6039
:102C1C00FB6853E8003FBB60BB6823F010037B6488
:102C2C007B681B680C337A6CBA617B617969BA6911
:102C3C0041E800233B613B69002BE5D17B682022F6
:102C4C0083F842207B6800221A6300BF5437BD46CC
:102C5C0080BC704780B584B000AF78607B685B6ADD
:102C6C00FB60FB680022DA85FB680022DA84F868D6
:102C7C00FFF7D3FE00BF1037BD4680BD80B485B0D2
:102C8C0000AF78607B6893F84130DBB2212B3ED1EA
:102C9C007B689B68B3F5805F14D17B681B69002B44
:102CAC0010D17B681B6AFB60FB681B881A467B682B
:102CBC001B68C2F308025A607B681B6A9A1C7B680B
:102CCC001A6208E07B681B6A591C7A6811621A78D0
:102CDC007B681B685A607B68DB8C9BB2013B9BB2A8
:102CEC007A681946D184002B0FD17B681B68DA688F
:102CFC007B681B6822F08002DA607B681B68DA68EC
:102D0C007B681B6842F04002DA60002300E002237B
:102D1C0018461437BD4680BC704780B582B000AFF2
:102D2C0078607B681B68DA687B681B6822F040025D
:102D3C00DA607B68202283F841207868FFF764FE14
:102D4C00002318460837BD4680BD80B58CB000AF57
:102D5C0078607B6893F84230DBB2222B40F0AE8077
:102D6C007B689B68B3F5805F17D17B681B69002B70
:102D7C0013D10023FB627B689B6ABB627B681B6878
:102D8C005B689BB2C3F308039AB2BB6A1A807B6878
:102D9C009B6A9A1C7B689A6226E07B689B6AFB6242
:102DAC000023BB627B689B68B3F5805F07D07B68B0
:102DBC009B68002B0AD17B681B69002B06D17B68B2
:102DCC001B685B68DAB2FB6A1A7008E07B681B68E8
:102DDC005B68DBB203F07F03DAB2FB6A1A707B68C4
:102DEC009B6A5A1C7B689A627B68DB8D9BB2013BA9
:102DFC009BB27A681946D185002B5DD17B681B6824
:102E0C00DA687B681B6822F02002DA607B681B683A
:102E1C00DA687B681B6822F48072DA607B681B6856
:102E2C005A697B681B6822F001025A617B68202278
:102E3C0083F842207B6800225A637B681B6B012B52
:102E4C0035D17B6800221A637B681B680C337B616D
:102E5C007B6953E8003F3B613B6923F010037B62C5
:102E6C007B681B680C337A6A3A62FB61F9693A6ACF
:102E7C0041E80023BB61BB69002BE5D17B681B6873
:102E8C001B6803F01003102B0AD10023FB607B6836
:102E9C001B681B68FB607B681B685B68FB60FB68DE
:102EAC007B689B8D19467868FFF7C0FD02E0786857
:102EBC00FDF746F9002302E0002300E00223184648
:102ECC003037BD4680BD000080B584B000AF78605F
:102EDC007B681B681B6923F440517B68DA687B684C
:102EEC001B680A431A617B689A687B681B691A43E2
:102EFC007B685B691343BB607B681B68DB6823F4EE
:102F0C00B05323F00C037A681268B9680B43D36092
:102F1C007B681B685B6923F440717B689A697B68EA
:102F2C001B680A435A617B681B682C4A934203D185
:102F3C00FEF78CFEF86002E0FEF774FEF860FA68AB
:102F4C0013469B0013449A001A447B685B689B00F1
:102F5C00B2FBF3F3224AA2FB03235B091901FA68C3
:102F6C0013469B0013449A001A447B685B689B00D1
:102F7C00B2FBF3F21A4BA3FB02035B09642000FBC8
:102F8C0003F3D31A1B013233154AA2FB03235B094B
:102F9C0003F0F0031944FA6813469B0013449A009B
:102FAC001A447B685B689B00B2FBF3F20C4BA3FBEF
:102FBC0002035B09642000FB03F3D31A1B013233B9
:102FCC00074AA2FB03235B0903F00F027B681B6813
:102FDC000A449A6000BF1037BD4680BD00380140DE
:102FEC001F85EB51164B10B51C68236BB3B9182019
:102FFC0000F02AFA0246206320B95221114B1248E4
:10300C0000F0BCF91149124BC0E90013114B00211F
:10301C0083600B2383810120C2E90401216B0E48DC
:10302C000B694C6958430D4A02FB0400A3FB0232A6
:10303C00013340EB0200C1E9043020F0004010BD28
:10304C00640000209E430008B54300080E33CDAB4E
:10305C0034126DE6ECDE05002DF451582D7F954CA5
:10306C00002310B50446C0E90033C0E90433836083
:10307C0081814366C2818361194608225C3000F06D
:10308C0002F9054B24626362044BA362044BE362B6
:10309C00044B236310BD00BF0D3200082F32000813
:1030AC00673200088B320008024A0349034800F0DB
:1030BC0069B800BF0C000020993C000818000020E3
:1030CC0041680C4B10B59942044601D000F0DEFD6E
:1030DC00A168094B994202D0204600F0D7FDE16867
:1030EC00064B994204D02046BDE8104000F0CEBDFE
:1030FC0010BD00BF50010020B801002020020020AC
:10310C0010B50B4B0B4C0C4A20461A6004210022C4
:10311C00FFF7A6FF04F1680001220921FFF7A0FFC9
:10312C0004F1D0000222BDE810401221FFF798BF35
:10313C008802002050010020B5300008014800F042
:10314C001BB900BF91020020014800F016B900BF66
:10315C009102002010B50446FFF7F0FF236A1BB163
:10316C00BDE81040FFF7F0BF044B2362044B1B6813
:10317C00002BF5D1FFF7C4FFF2E700BFCD300008FC
:10318C00880200202DE9F84307468846144600269D
:10319C00D4E90195B9F1010905D52468002CF7D1C2
:1031AC003046BDE8F883AB89012B07D9B5F90E3051
:1031BC00013303D029463846C04706436835E9E752
:1031CC000EB46FF0004100B59CB01DAB02900690A0
:1031DC00079104910848094953F8042B059100689C
:1031EC0002A9019300F03EFA0022029B1A701CB057
:1031FC005DF804EB03B07047640000200802FFFF89
:10320C0010B50C46B1F90E1000F068F80028ABBFF1
:10321C00636DA3891B1823F48053ACBF6365A38132
:10322C0010BD2DE9F0411F468B890546DB050C4688
:10323C00164605D502230022B1F90E1000F03CF819
:10324C00A389324623F48053A38128463B46B4F924
:10325C000E10BDE8F04100F053B810B50C46B1F9B2
:10326C000E1000F029F8431CA38915BF606523F4E8
:10327C00805343F48053A38118BFA38110BDB1F9CF
:10328C000E1000F009B803460244934200D1704777
:10329C0003F8011BF9E7000038B50023054D04467F
:1032AC0008462B60FDF754FA431C02D12B6803B17E
:1032BC00236038BD8C02002038B504460846114600
:1032CC000022054D2A601A46FDF766FA431C02D10E
:1032DC002B6803B1236038BD8C02002038B504463E
:1032EC00084611460022054D2A601A46FDF7F7F9EB
:1032FC00431C02D12B6803B1236038BD8C02002023
:10330C0038B50446084611460022054D2A601A4677
:10331C00FDF702FA431C02D12B6803B1236038BDC0
:10332C008C020020014B1868704700BF640000201D
:10333C0070B500260C4D0D4C641BA410A64209D18F
:10334C0001F002F800260A4D0A4C641BA410A64298
:10335C0005D170BD55F8043B98470136EEE755F89A
:10336C00043B98470136F2E77C4400087C44000893
:10337C007C44000880440008704770471FB5144611
:10338C001A46094B05461B68D8684CB1074BCDE96A
:10339C00013400912B46064900F0A0FC00F0F6FC2D
:1033AC00044B1C46F3E700BF640000200D440008EA
:1033BC001A4400084844000838B50546002940D096
:1033CC0051F8043C0C1F002BB8BFE41800F0E4F8D3
:1033DC001C4A136833B9636014602846BDE8384052
:1033EC0000F0E0B8A34208D9206821188B4201BF35
:1033FC0019685B6809182160EDE71A465B680BB128
:10340C00A342FAD911685018A0420BD1206801448C
:10341C00501883421160E0D118685B680844106052
:10342C005360DAE702D90C232B60D6E72068211809
:10343C008B4201BF19685B68091821606360546096
:10344C00CBE738BD94020020024B0146186800F00F
:10345C0023B800BF6400002070B50E4E0C463168D6
:10346C00054611B900F066FC30602146284600F094
:10347C0061FC431C0AD0C41C24F00304A04207D0F6
:10348C00211A284600F056FC013001D14FF0FF34D0
:10349C00204670BD980200202DE9F843CD1C25F084
:1034AC00030508350C2D38BF0C25002D074601DB14
:1034BC00A94205D90C2300263B603046BDE8F883B1
:1034CC00DFF8D08000F068F8D8F800301C465CBB00
:1034DC0029463846FFF7C0FF431C044655D1D8F89F
:1034EC0000402646002E45D1002C48D0236831469A
:1034FC00384604EB030900F01DFC81453FD12168DF
:10350C0038466D1A2946FFF7A7FF013037D02368DC
:10351C002B442360D8F80030002B38D05A68A242D4
:10352C002BD100225A600FE02268521B1FD40B2AA9
:10353C0017D96119A342256018BF5960636808BF89
:10354C00C8F8001062514B60384604F10B0600F0CD
:10355C0029F826F00706231DF21AAED09B1BA350A8
:10356C00ABE7A3426268DDD1C8F80020ECE7234644
:10357C006468ACE734467668B4E71346CCE70C23B2
:10358C0038463B6000F00EF897E72560DCE75B609F
:10359C00FFDE00BF940200200148FFF7EDBE00BF24
:1035AC00900200200148FFF7E8BE00BF9002002007
:1035BC002DE9F0471F468E688246BE420C46904667
:1035CC000B682CD88A8912F4906F26D0656909692A
:1035DC0005EB4505A3EB010905EBD5757B1C4B44AD
:1035EC006D109D4238BF1D46530527D52946FFF760
:1035FC0053FF064660B34A46216900F0B9FBA38924
:10360C0023F4906343F08003A38126614E4426602B
:10361C003E466561A5EB0905A560BE4200D93E4654
:10362C0032464146206800F06BFB0020A3689B1BD0
:10363C00A360236833442360BDE8F0872A4600F07A
:10364C00ACFB06460028E0D150462169FFF7B4FEDA
:10365C000C23CAF80030A3894FF0FF3043F040032D
:10366C00A381E9E72DE9F04F98468B8907461B06A5
:10367C000D4614469DB00ED50B6963B94021FFF77A
:10368C000BFF2860286120B90C233B604FF0FF3002
:10369C00D0E040236B610023099320238DF829305F
:1036AC0030234FF00109CDF80C80DFF8A0818DF8A4
:1036BC002A3023469A4613F8012B0AB1252AF9D150
:1036CC00BAEB040B0BD05B46224629463846FFF773
:1036DC006FFF013000F0A980099A5A4409929AF8B8
:1036EC000030002B00F0A18000234FF0FF32CDE919
:1036FC0005230AF1010A049307938DF853301A93AA
:10370C005446052214F8011B504800F023FB049A80
:10371C00D8B9D00644BF20238DF85330110744BFCD
:10372C002B238DF853309AF800302A2B15D05446A1
:10373C0000204FF00A0C079A214611F8013B303B50
:10374C00092B4DD9B0B1079214E0A0EB080309FA8C
:10375C0003F31343A2460493D2E7039B191D1B6882
:10376C000391002BBBBF5B4242F00202079307930D
:10377C00B8BF049223782E2B0CD163782A2B34D12A
:10378C00039B02341A1D1B680392002BB8BF4FF029
:10379C00FF330593DFF8B8A003225046217800F0E0
:1037AC00D9FA38B14022049BA0EB0A0082401343A3
:1037BC000134049314F8011B062226488DF82810B6
:1037CC0000F0C8FA002838D0234B1BBB039B0733EF
:1037DC0023F0070308330393099B3344099368E7E9
:1037EC000C4601200CFB0232A6E700234FF00A0C1A
:1037FC00194601340593204610F8012B303A092A5A
:10380C0003D9002BC6D00591C4E7044601230CFB59
:10381C000121F0E703AB00932A4638460F4B04A96D
:10382C00AFF30080421C0646D6D1AB895B063FF550
:10383C002DAF09981DB0BDE8F08F03AB00932A465D
:10384C003846064B04A900F07DF8EBE74944000824
:10385C004F4400085344000800000000BD35000828
:10386C002DE9F047164699468A680B69074693423C
:10387C00B8BF1346336091F843200C46DDF8208026
:10388C000AB1013333602368990642BF33680233AF
:10389C003360256815F0060506D104F1190AE368B2
:1038AC0032689B1AAB422BDC94F84320131E22681F
:1038BC0018BF0123920630D44946384604F143021E
:1038CC00C047013023D02368226903F00603042B80
:1038DC0014BF002533684FF0000608BFE56804F1FB
:1038EC001A0408BFED1A54F8123C08BF25EAE57516
:1038FC009342C4BF9B1AED18B5421AD1002008E0C0
:10390C000123524649463846C047013003D14FF097
:10391C00FF30BDE8F0870135C1E73020E11881F8B0
:10392C0043005A1C94F845102244023382F8431089
:10393C00C2E70123224649463846C0470130E6D04B
:10394C000136D9E72DE9FF470F7E9146782F804647
:10395C000C469A460C9D01F1430207D8622F0AD8F7
:10396C00002F00F0D580582F00F0C18004F14205E3
:10397C0084F842703AE0A7F16303152BF6D801A145
:10398C0051F823F0E9390008FD39000879390008AD
:10399C00793900087939000879390008FD390008AF
:1039AC007939000879390008793900087939000823
:1039BC00033B0008293A0008BD3A00087939000891
:1039CC0079390008253B000879390008293A0008A4
:1039DC007939000879390008C53A00082B681A1D96
:1039EC001B682A6004F1420584F842300123A0E0F0
:1039FC0020682B68070603F10401296001D51E68B5
:103A0C0003E04606FBD5B3F90060002E03DA2D2344
:103A1C00764284F843300A23594812E02B68206818
:103A2C00191D2960050601D51E6802E04106FBD56B
:103A3C001E886F2F0CBF08230A235148002184F8DD
:103A4C0043106568002DA8BF2168A560A4BF21F0B4
:103A5C00040121600EB9002D4BD01546B6FBF3F1D5
:103A6C0003FB1167C75D05F8017D3746BB420E4667
:103A7C00F4D9082B0BD12368DE0708D523696168BC
:103A8C009942DEBF302305F8013C05F1FF35521B8E
:103A9C0022614B4621464046CDF800A003AAFFF711
:103AAC00DFFE01304AD14FF0FF3004B0BDE8F087A3
:103ABC00236843F0200323607827324884F845704C
:103ACC00236829681F0651F8046B02D45F0648BFAF
:103ADC00B6B2DF0748BF43F02003296048BF23601C
:103AEC001EB9236823F0200323601023A6E7244883
:103AFC00E4E71546BDE72B682668181D6169286048
:103B0C0035061B6801D5196002E07006FBD51980DB
:103B1C00002315462361BCE72B6800211A1D2A607F
:103B2C001D686268284600F015F908B1401B6060FA
:103B3C0063682361002384F84330AAE72A46494688
:103B4C0040462369D0470130ADD023689B0713D47E
:103B5C00E068039B9842B8BF1846A6E7012332469B
:103B6C0049464046D04701309DD00135E368039962
:103B7C005B1AAB42F2DCEBE7002504F11906F5E722
:103B8C005A4400086B4400088A89F8B505461007AA
:103B9C000C4657D44B68002B04DC0B6C002B01DC5F
:103BAC000020F8BDE66A002EFAD0002312F48052F1
:103BBC002F68216A2B6032D0606DA3895A0705D516
:103BCC006368C01A636B0BB1236CC01A00230246E6
:103BDC00E66A2846216AB047431CA38906D12968A6
:103BEC001D292BD8284A0A41D60727D40022626007
:103BFC002269D904226004D5421C01D12B6803B977
:103C0C006065616B2F600029CAD004F144039942AE
:103C1C0002D02846FFF7D0FB00206063C1E70123E8
:103C2C002846B047411CC8D12B68002BC5D01D2B92
:103C3C0001D0162B01D12F60B2E7A38943F04003CA
:103C4C00A381AEE70F69002FAAD0930718BF0023FA
:103C5C000E6808BF4B69F61B0F608B60002E9FDD52
:103C6C0033463A462846216AD4F828C0E047002853
:103C7C0006DCA3894FF0FF3043F04003A38190E7AB
:103C8C000744361AEAE700BFFEFFBFDF38B50B6901
:103C9C0005460C4613B90025284638BD18B1036AF1
:103CAC000BB9FFF757FAB4F90C30002BF3D0626E56
:103CBC00D00704D4990502D4A06DFFF75DFB28460C
:103CCC002146FFF761FF636E0546DA07E4D4A3894A
:103CDC009B05E1D4A06DFFF750FBDDE70EB403B5F7
:103CEC00014603AB054853F8042B0068019300F020
:103CFC00ABF802B05DF804EB03B070476400002031
:103D0C00884210B501EB020402D98442234607D83D
:103D1C00431EA14208D011F8012B03F8012FF8E73C
:103D2C00014602448A4200D110BD13F8014D02F83D
:103D3C00014DF7E738B50023054D044608462B60C6
:103D4C00FCF736FD431C02D12B6803B1236038BD50
:103D5C008C020020034610B5C9B2024493421846A7
:103D6C0001D1002003E0047801338C42F6D110BD60
:103D7C000A44914200F1FF3300D1704710B511F89D
:103D8C00014B914203F8014FF9D110BD062008B543
:103D9C0000F032FA0120FCF798FC2DE9F041804646
:103DAC0014460E4621B91146BDE8F041FFF774BB2D
:103DBC002AB9FFF701FB25462846BDE8F08100F043
:103DCC0037FA8442074602D8B4EB500F12D821467A
:103DDC004046FFF761FB05460028EDD0BC42224669
:103DEC00314628BF3A46FFF7C3FF31464046FFF73E
:103DFC00E3FAE1E73546DFE7936810B4013B002BAB
:103E0C00936007DA9469A34201DB0A2902D110BC42
:103E1C0000F034B91368581C10601970084610BCB7
:103E2C007047F8B506460F461446D518AC4201D17A
:103E3C00002007E03A46304614F8011BFFF7DCFF80
:103E4C00431CF3D1F8BD00002DE9F04F0D4614468C
:103E5C00984606469DB018B1036A0BB9FFF77AF97C
:103E6C006B6ED90705D4AB899A0502D4A86DFFF700
:103E7C0083FAAB891B0701D52B699BB929463046C0
:103E8C0000F03AF970B16B6EDC0704D54FF0FF30DF
:103E9C001DB0BDE8F08FAB899805F7D4A86DFFF77E
:103EAC006CFAF3E70023099320238DF82930302393
:103EBC004FF00109CDF80C80DFF8AC818DF82A3079
:103ECC0023469A4613F8012B0AB1252AF9D1BAEBED
:103EDC00040B0BD05B46224629463046FFF7A1FF68
:103EEC00013000F0A980099A5A4409929AF80030DE
:103EFC00002B00F0A18000234FF0FF32CDE9052309
:103F0C000AF1010A049307938DF853301A9354461F
:103F1C00052214F8011B5448FFF71CFF049AD8B96A
:103F2C00D10644BF20238DF85330130744BF2B23F5
:103F3C008DF853309AF800302A2B15D054460020B7
:103F4C004FF00A0C079A214611F8013B303B092B24
:103F5C004DD9B0B1079214E0A0EB080309FA03F3B2
:103F6C001343A2460493D2E7039B191D1B680391CC
:103F7C00002BBBBF5B4242F0020207930793B8BF12
:103F8C00049223782E2B0CD163782A2B34D1039BEB
:103F9C0002341A1D1B680392002BB8BF4FF0FF337D
:103FAC000593DFF8C8A0032250462178FFF7D2FE14
:103FBC0038B14022049BA0EB0A0082401343013429
:103FCC00049314F8011B062229488DF82810FFF7DA
:103FDC00C1FE00283FD0274B1BBB039B073323F0AC
:103FEC00070308330393099B3B44099368E70C468A
:103FFC0001200CFB0232A6E700234FF00A0C1946F5
:10400C0001340593204610F8012B303A092A03D9C4
:10401C00002BC6D00591C4E7044601230CFB0121FB
:10402C00F0E703AB00932A463046134B04A9AFF3D9
:10403C0000800746781CD6D16B6ED90705D4AB89A6
:10404C009A0502D4A86DFFF798F9AB895B063FF58A
:10405C001DAF09981CE703AB00932A463046064B6C
:10406C0004A9FFF76FFCE4E7494400084F4400083B
:10407C0053440008000000002F3E0008F8B50E461F
:10408C001446054618B1036A0BB9FFF763F8A36928
:10409C00A360A3891A0725D523691BB3236822695A
:1040AC00F6B2981A63693746834204DC21462846E7
:1040BC00FFF7ECFDE0B9A368013BA36023685A1C31
:1040CC0022601E706269431C9A4204D0A389DB07EC
:1040DC0006D50A2E04D121462846FFF7D7FD38B95C
:1040EC003846F8BD2146284600F006F80028D5D001
:1040FC004FF0FF37F4E7000038B52A4B0546186837
:10410C000C4618B1036A0BB9FFF724F8A389B4F96C
:10411C000C20180722D4D90607D409232B6042F0AF
:10412C0040034FF0FF30A38134E0580712D5616B88
:10413C0041B104F14403994202D02846FFF73CF9FF
:10414C0000236363A38923F02403A381002363600A
:10415C0023692360A38943F00803A38123694BB926
:10416C00A38903F42073B3F5007F03D021462846BE
:10417C0000F08BF8A089B4F90C2010F001030AD0E0
:10418C000023A36063695B42A361236943B910F008
:10419C008000C4D138BD810758BF6369A360F4E7C0
:1041AC000020F7E7640000201F2938B504460D46AF
:1041BC0004D9162303604FF0FF3038BDC26B12B127
:1041CC0052F821304BB9204600F030F82A4601460F
:1041DC002046BDE8384000F017B8012B0AD0591C16
:1041EC0003D1162303600120E7E70024284642F898
:1041FC00254098470020E0E7024B01461868FFF77E
:10420C00D3BF00BF6400002038B50023064D044620
:10421C00084611462B60FCF748FA431C02D12B6868
:10422C0003B1236038BD00BF8C020020FCF736BA06
:10423C0051F8043C181F002BBCBF0B58C01870471A
:10424C0070B50C46B1F90E10154600291E4696B0F5
:10425C000CDAA389002113F0800F0CBF4FF480639C
:10426C004023002031602B6016B070BD6A4600F010
:10427C0049F80028EDDB019901F47041A1F50053D8
:10428C00594259414FF48063EBE78B8973B59D0715
:10429C0006460C4607D504F147032360236101232E
:1042AC00636102B070BD6A4601ABFFF7C9FF0099AC
:1042BC0005463046FFF7F0F848B9B4F90C309A05CA
:1042CC00EFD423F0030343F00203A381E3E7A389B4
:1042DC00206043F08003A381009B20616361019BFC
:1042EC005BB13046B4F90E1000F01EF828B1A3896A
:1042FC0023F0030343F00103A381A3891D43A5818C
:10430C00CFE7000038B50023064D04460846114699
:10431C002B60FCF728FA431C02D12B6803B12360F5
:10432C0038BD00BF8C02002038B50023054D044673
:10433C0008462B60FCF726FA431C02D12B6803B10C
:10434C00236038BD8C020020F8B500BFF8BC08BC57
:10435C009E467047F8B500BFF8BC08BC9E46704737
:10436C0025750D0A00000000000000000000000090
:10437C0001020304060708090000000001020304FF
:10438C0002030405060708090A0B0C0D0E0F10108A
:10439C0001025245454E54206D616C6C6F63207365
:1043AC007563636565646564002F6275696C642F61
:1043BC00676E752D746F6F6C732D666F722D7374C1
:1043CC006D33325F31312E332E72656C312E3230BB
:1043DC003233303531392D313934312F7372632FFB
:1043EC006E65776C69622F6E65776C69622F6C698C
:1043FC0062632F7374646C69622F72616E642E63D6
:10440C00002C2066756E6374696F6E3A20006173C0
:10441C0073657274696F6E20222573222066616940
:10442C006C65643A2066696C6520222573222C2009
:10443C006C696E65202564257325730A00232D3065
:10444C002B2000686C4C0065666745464700303190
:10445C0032333435363738394142434445460030DF
:10446C00313233343536373839616263646566000E
:04447C003101000802
:044480000D01000822
:104484000024F400100000000100000000000000FF
:104494000300000050010020000000005001002033
:1044A400B8010020200200200000000000000000ED
:1044B40000000000000000000000000000000000F8
:1044C40000000000000000000000000000000000E8
:1044D40000000000000000000000000000000000D8
:0844E400000000001800002098
:0400000508000835B2
:00000001FF
